{
    "_format": "hh-sol-artifact-1",
    "contractName": "ColourBoard",
    "sourceName": "contracts/board.sol",
    "abi": [
        {
            "inputs": [],
            "stateMutability": "nonpayable",
            "type": "constructor"
        },
        {
            "inputs": [
                {
                    "internalType": "uint8",
                    "name": "x",
                    "type": "uint8"
                },
                {
                    "internalType": "uint8",
                    "name": "y",
                    "type": "uint8"
                }
            ],
            "name": "getColour",
            "outputs": [
                {
                    "internalType": "enum ColourBoard.Colour",
                    "name": "",
                    "type": "uint8"
                }
            ],
            "stateMutability": "view",
            "type": "function"
        },
        {
            "inputs": [
                {
                    "internalType": "uint8",
                    "name": "x",
                    "type": "uint8"
                },
                {
                    "internalType": "uint8",
                    "name": "y",
                    "type": "uint8"
                },
                {
                    "internalType": "enum ColourBoard.Colour",
                    "name": "colour",
                    "type": "uint8"
                }
            ],
            "name": "setColour",
            "outputs": [],
            "stateMutability": "nonpayable",
            "type": "function"
        }
    ],
    "bytecode": "0x608060405234801561001057600080fd5b5060005b602360ff168160ff1610156100745760008060008360ff16815260200190815260200160002060006101000a81548160ff0219169083600481111561005c5761005b61007a565b5b0217905550808061006c906100e5565b915050610014565b5061010e565b7f4e487b7100000000000000000000000000000000000000000000000000000000600052602160045260246000fd5b7f4e487b7100000000000000000000000000000000000000000000000000000000600052601160045260246000fd5b600060ff82169050919050565b60006100f0826100d8565b915060ff8203610103576101026100a9565b5b600182019050919050565b6106a08061011d6000396000f3fe608060405234801561001057600080fd5b50600436106100365760003560e01c8063d1aadb6a1461003b578063f159fe7114610057575b600080fd5b6100556004803603810190610050919061034f565b610087565b005b610071600480360381019061006c91906103a2565b6101fc565b60405161007e9190610459565b60405180910390f35b60078360ff16106100cd576040517f08c379a00000000000000000000000000000000000000000000000000000000081526004016100c4906104d1565b60405180910390fd5b60058260ff1610610113576040517f08c379a000000000000000000000000000000000000000000000000000000000815260040161010a9061053d565b60405180910390fd5b60016004811115610127576101266103e2565b5b81600481111561013a576101396103e2565b5b1015801561016c5750600480811115610156576101556103e2565b5b816004811115610169576101686103e2565b5b11155b6101ab576040517f08c379a00000000000000000000000000000000000000000000000000000000081526004016101a2906105a9565b60405180910390fd5b60006101b784846102ca565b9050816000808360ff16815260200190815260200160002060006101000a81548160ff021916908360048111156101f1576101f06103e2565b5b021790555050505050565b6000600760ff168360ff1610610247576040517f08c379a000000000000000000000000000000000000000000000000000000000815260040161023e906104d1565b60405180910390fd5b600560ff168260ff1610610290576040517f08c379a00000000000000000000000000000000000000000000000000000000081526004016102879061053d565b60405180910390fd5b600061029c84846102ca565b90506000808260ff16815260200190815260200160002060009054906101000a900460ff1691505092915050565b6000826007836102da91906105f8565b6102e49190610635565b905092915050565b600080fd5b600060ff82169050919050565b610307816102f1565b811461031257600080fd5b50565b600081359050610324816102fe565b92915050565b6005811061033757600080fd5b50565b6000813590506103498161032a565b92915050565b600080600060608486031215610368576103676102ec565b5b600061037686828701610315565b935050602061038786828701610315565b92505060406103988682870161033a565b9150509250925092565b600080604083850312156103b9576103b86102ec565b5b60006103c785828601610315565b92505060206103d885828601610315565b9150509250929050565b7f4e487b7100000000000000000000000000000000000000000000000000000000600052602160045260246000fd5b60058110610422576104216103e2565b5b50565b600081905061043382610411565b919050565b600061044382610425565b9050919050565b61045381610438565b82525050565b600060208201905061046e600083018461044a565b92915050565b600082825260208201905092915050565b7f496e76616c6964207820636f6f7264696e617465000000000000000000000000600082015250565b60006104bb601483610474565b91506104c682610485565b602082019050919050565b600060208201905081810360008301526104ea816104ae565b9050919050565b7f496e76616c6964207920636f6f7264696e617465000000000000000000000000600082015250565b6000610527601483610474565b9150610532826104f1565b602082019050919050565b600060208201905081810360008301526105568161051a565b9050919050565b7f496e76616c696420636f6c6f7572000000000000000000000000000000000000600082015250565b6000610593600e83610474565b915061059e8261055d565b602082019050919050565b600060208201905081810360008301526105c281610586565b9050919050565b7f4e487b7100000000000000000000000000000000000000000000000000000000600052601160045260246000fd5b6000610603826102f1565b915061060e836102f1565b925082820261061c816102f1565b915080821461062e5761062d6105c9565b5b5092915050565b6000610640826102f1565b915061064b836102f1565b9250828201905060ff811115610664576106636105c9565b5b9291505056fea2646970667358221220936c4a3c165d90e99498edccd57c6818aee63bc0e97ff4dccda0c905e9978af864736f6c63430008130033",
    "linkReferences": {},
    "deployedLinkReferences": {}
}